:10100000000004205D130000BD130000BF130000AA
:10101000C1130000C3130000C5130000000000004E
:10102000000000000000000000000000C7130000E6
:10103000C913000000000000CB130000CD13000016
:1010400015250000CF130000CF130000CF130000C0
:10105000CF130000CF130000CF130000CF13000008
:10106000CF130000CF130000CF130000CF130000F8
:10107000CF130000CF130000CF130000CF130000E8
:10108000CF130000CF130000CF130000CF130000D8
:10109000CF130000CF130000CF130000CF130000C8
:1010A000CF130000CF130000CF130000CF130000B8
:1010B000CF130000CF13000000000000000000006C
:1010C000CF130000CF130000CF130000CF13000098
:1010D000CF130000CF130000CF130000ED2200005B
:1010E000CF130000CF130000CF130000000000005A
:1010F00000000000CF13000000000000CF1300002C
:1011000000000000000000000000000000000000DF
:1011100000000000000000000000000000000000CF
:1011200000000000000000000000000000000000BF
:1011300000000000000000000000000000000000AF
:10114000000000000000000000000000000000009F
:10115000000000000000000000000000000000008F
:10116000000000000000000000000000000000007F
:10117000000000000000000000000000000000006F
:10118000000000000000000000000000000000005F
:10119000000000000000000000000000000000004F
:1011A000000000000000000000000000000000003F
:1011B000000000000000000000000000000000002F
:1011C000000000000000000000000000000000001F
:1011D000000000000000000000000000000000000F
:1011E00000000000000000000000000000000000FF
:1011F00000000000000000000000000000000000EF
:10120000354936480A1A02D0072291438D4634499F
:1012100034480A1A06D00722914381F30988022232
:1012200082F3148830483149314A00F044F831489B
:101230003149324A00F03FF831483249324A00F031
:101240003AF832483249334A00F035F832483349E7
:10125000334A00F030F833483349344A00F02BF871
:1012600033483449344A00F026F8344834490022DF
:1012700000F02CF833483449002200F027F83348B6
:101280003349091A082902DB002202604160314A11
:1012900090471F481F49884205D00268043003B4B4
:1012A000904703BCF7E700208646EC46002000216B
:1012B000294A9047FEE7884207D0521A05D00378A2
:1012C00001300B700131013AF9D17047884202D0E8
:1012D00002700130FAE770470000042000E00320AC
:1012E0000000042000000420002700000800002067
:1012F0000C000020D4130000D41300006C26000062
:101300000027000008000020080000206C260000D4
:101310006C2600006C2600006C2600006C26000085
:101320006C2600006C2600006C26000000270000E0
:10133000042700000C0000200C0000200C000020FE
:101340007401002074010020740100207401002049
:1013500074210020851300009D1400001048804770
:1013600010484FF00701884385460F4880470F48D3
:10137000016841F470010160BFF34F8FBFF36F8FBD
:10138000FFF73EBF0A480B490B4A884207D0521A62
:1013900005D0037801300B700131013AF9D1704763
:1013A000D1130000000004202516000088ED00E0A5
:1013B0006C2600000800002008000020FEE7FEE781
:1013C000FEE7FEE7FEE7FEE7FEE7FEE7FEE7FEE7F5
:0413D000704700BFA3
:1013D400144B0022C3F8002101225A60D3F80021E3
:1013E400002AFBD00022C3F80C2101229A600D4B85
:1013F4001A46D3F80C110029FBD0D3F80034012B82
:1014040008BF09494FF0000308BF0868C2F810314B
:1014140018BF184601231361024AD2F81031002B79
:10142400FBD07047001000400C00002008B50328D2
:1014340030D8DFE800F002101721002000F052F845
:10144400012000F063F8022000F060F8BDE80840D5
:10145400032000F05BB8002000F058F8012000F0F1
:1014640041F8F0E7002000F051F8012000F04EF8B8
:10147400022000F037F8E9E7002000F047F80120E7
:1014840000F044F8022000F041F8BDE808400320D1
:1014940000F028B808BD000008B5012000F05AF893
:1014A40000F0DCF9002000F023FA00F04BFA0028E9
:1014B400FBD0002000F0EAF900F012FA0028FBD07B
:1014C40001F03EF8054B064AC3F80425FFF780FFF8
:1014D4000138C0B2FFF7AAFFF8E700BF00100040D0
:1014E4000C000020074B1B5C1F2B86BF064903F032
:1014F4001F034FF0A041012202FA03F3C1F80C3597
:10150400704700BF6C26000000030050074B1B5CB3
:101514001F2B86BF064903F01F034FF0A041012291
:1015240002FA03F3C1F80835704700BF6C260000C7
:101534000003005008B50020FFF7E8FF0120FFF783
:10154400E5FF0220FFF7E2FFBDE808400320FFF7B4
:10155400DDBF0000C10710B5044642D54FF08043FB
:10156400D3F84036DA072ED54FF01023D3F80433DE
:1015740003F00703072B26D11D4B0122C3F80425D2
:10158400D3F80024002AFBD04FF01021D1F8042313
:1015940022F0070242F00402C1F804230022C3F837
:1015A4000425134AD2F80034002BFBD0BFF34F8F2D
:1015B4001049114BCA6802F4E0621343CB60BFF3D5
:1015C4004F8F00BFFDE74FF0A0420C490323C2F840
:1015D4001837C2F82037C1F82437C2F83037FFF77C
:1015E400A9FFA30742BF054B0C22C3F8182710BD5F
:1015F40000E0014000ED00E00400FA0500030050A3
:10160400054B1B68082B01BF044B1868B0FA80F027
:10161400400918BF00207047300100103401001049
:1016240008B54FF080430022C3F80C21C3F8102101
:10163400C3F838254FF0805203F54043D2F8041420
:10164400C3F82015D2F80814C3F82415D2F80C14E2
:10165400C3F82815D2F81014C3F82C15D2F81414B2
:10166400C3F83015D2F81814C3F83415D2F81C1482
:10167400C3F84015D2F82014C3F84415D2F8241442
:10168400C3F84815D2F82814C3F84C15D2F82C1412
:10169400C3F85015D2F83014C3F85415D2F83414E2
:1016A400C3F86015D2F83814C3F86415D2F83C14A2
:1016B400C3F86815D2F84014C3F86C15D2F8442462
:1016C400C3F87025FFF79CFF10B1384B384A1A60F5
:1016D400FFF796FF18B1374BFB22C3F81825FFF725
:1016E4008FFF48B13449354B0A681B6822F00F025A
:1016F40003F00F0313430B60FFF782FF18B1304B65
:101704004FF400721A604FF08043D3F80024D207DC
:1017140044BF6FF00102C3F800242A4AD2F888308B
:1017240043F47003C2F88830BFF34F8FBFF36F8F59
:101734004FF01023D3F80022002A03DBD3F804323D
:10174400002B2FDA204B0122C3F80425D3F8002400
:10175400002AFBD04FF010221221C2F80012D3F855
:101764000024002AFBD04FF010231222C3F80422D5
:10177400154B1A46D3F800140029FBD00021C3F8F6
:101784000415D2F80034002BFBD0BFF34F8F0D4962
:101794000E4BCA6802F4E0621343CB60BFF34F8F71
:1017A40000BFFDE70A4B0B4A1A6008BD8C56004087
:1017B4004881030000F00040E40E0040580200108D
:1017C4004096024000ED00E000E001400400FA050C
:1017D400080000200090D00372B6024A1368013357
:1017E4001360704710000020034A1368013B136024
:1017F40003B962B6704700BF10000020FFF7ECBFCA
:10180400FFF7F2BF10B5034653E8002F02EA0100C8
:1018140043E8000494F0000FF6D110BD38B5074C2E
:10182400051E04F1080318BF1C4623682BB11A686F
:1018340022605B6828469847F7E738BD1C00002003
:1018440020B9054B01225A70FFF7E8BF012802D1E5
:10185400014A9070F8E770471400002038B5094C2D
:1018640023786BB908486360A3602361E36000F0E8
:101874007FF8054600F088F801232370284638BD18
:101884008525FBE7140000204518000038B5134CEB
:10189400A378054603F0FF0073B115B16B6801200E
:1018A40098470020FFF7AAFFE3680133E3600020B4
:1018B400BDE83840FFF7A4BFFFF7A0FF25B12269B8
:1018C40013463BB92A602561E368002BECD100F094
:1018D40073F8E9E79D42F7D01B68F2E71400002093
:1018E4004FF08043D3F81804C0F300407047000061
:1018F40038B5134C6378054603F0FF0073B115B196
:101904006B68002098470020FFF778FF6368013375
:1019140063600020BDE83840FFF772BFFFF76EFF39
:1019240025B1A26813463BB92A60A5606368002B01
:10193400ECD100F04EF8E9E79D42F7D01B68F2E7DE
:10194400140000204FF08043D3F80C0400F0011081
:10195400A0F1011358425841704700F18040002320
:1019640082B0036003680193019B02B070470000DA
:10197400044A137923B901211060918018467047F5
:101984008520704728000020094B1A68D20706D426
:10199400C02283F800230122C3F880211A604FF08B
:1019A40080420123C2F81835024A1370704700BF01
:1019B40000E100E03000002008B54FF48270FFF72A
:1019C400CCFF4FF080430222C3F8042301229A6023
:1019D40008BD08B54FF48070FFF7BFFF4FF0804398
:1019E4000122C3F804231A6008BD0000124B1B68CF
:1019F40010B573B14FF48070FFF7AFFF4FF0804321
:101A04000122C3F808230D4B587910B95A711B6889
:101A140098470B4B1B6873B14FF48270FFF79DFF1F
:101A24004FF080430222C3F80823044BBDE8104062
:101A34001B680120184710BD000100402800002049
:101A44000401004000F1804000F51C3001230360D4
:101A5400BFF36F8FBFF34F8F70470000054B1B68B8
:101A6400082B01BF044B1868B0FA80F0400918BF76
:101A7400002070473001001034010010054B10F0B5
:101A8400800FA3F1900208BF134600F00F0003EB90
:101A940000107047CC00002010F0800F14BF00230A
:101AA400102300F00F00184470470000024A00237E
:101AB4001360024A137070471C7C024032000020FD
:101AC40007B5094A00231370084AADF805301370AE
:101AD4008DF8073001238DF80430054B01A81B68ED
:101AE400984703B05DF804FB31000020600100203A
:101AF4005C0100207047000008B5FFF7D7FF084BD2
:101B040093F89E20032A06D1BDE8084005486FF0EB
:101B14000101FFF777BED3F89030002BF4D008BD55
:101B24003C0000203400002007B500238DF8043069
:101B34000B4BD3F82025ADF80620D3F8C034094A5E
:101B4400002B13680CBF4FF480714FF001210B433D
:101B54001360054B01A81B68984703B05DF804FBAC
:101B640000700240380000205C01002013B5124CC4
:101B74000122236802FA01F10B4323600F4B1B6817
:101B8400194003060DD551B906238DF804308DF89C
:101B940006008DF807100A4B01A81B68984702B08D
:101BA40010BD0029FBD106238DF804308DF8060002
:101BB4008DF80720EFE700BF380000203400002034
:101BC4005C01002008B5054B1A781046FFF764FF46
:101BD400BDE8084001461046FFF7C8BF6001002079
:101BE40008B50146FFF762FFFFF748FF837B032B2D
:101BF4000BD10846FFF750FF012303FA00F0C1435D
:101C0400BDE808400348FFF7FDBD0368002BF0D092
:101C140008BD00BF340000208720FFF7E1BF862005
:101C2400FFF7DEBF8520FFF7DBBF8420FFF7D8BFB7
:101C34008320FFF7D5BF8220FFF7D2BF8120FFF7B3
:101C4400CFBF000007B5FFF731FF104B93F81E21FB
:101C5400032A07D10E486FF48071FFF7D3FD03B058
:101C64005DF804FBD3F81031002BF8D16FF48071C8
:101C74000748FFF7C7FD06238DF804308823ADF825
:101C84000630044B01A81B689847E8E73C00002095
:101C9400340000205C01002007B5FFF707FF0D4B5F
:101CA40093F88E20032A11D0D3F8803073B90A48F0
:101CB4006FF08071FFF7A6FD06238DF8043008232A
:101CC400ADF80630054B01A81B68984703B05DF8D2
:101CD40004FB00BF3C000020340000205C01002015
:101CE400244B13B5D3F80044C3F80044BFF36F8FFB
:101CF400BFF34F8FBFF36F8FBFF34F8FE1050ED547
:101D04001D4B01221A700023ADF805308DF8073001
:101D140002238DF80430194B01A81B689847A205CB
:101D24000DD5154A00231370ADF805308DF8073032
:101D340003238DF80430114B01A81B6898476305F1
:101D440016D50D4B1A789AB100221A70094B01214D
:101D5400C3F808155820FFF775FE04238DF80430E6
:101D6400064BADF805201B688DF8072001A898479D
:101D740002B010BD00700240310000205C01002060
:101D84002DE9F04F7A4B87B01A780093002A40F07F
:101D94008380DFF800A2DFF8DCB1764BDAF80010BC
:101DA4001D68294078D011F0012578D095FAA5F561
:101DB400B5FA85F50F2D86BFA5F11004E4B245F000
:101DC40080042046FFF75AFE4FFA84F8B8F1000F5A
:101DD4008289064604F0080966DAD0E9003104A8CD
:101DE400984700B93060644B82221A60009B059AC0
:101DF400049801211970B368A940DBF8005013441A
:101E040025EA0101B8F1000FB360CBF800105B4B79
:101E140004F00F0480F28380B9F1000F77D0C3F887
:101E2400A006C3F8A426FFF719FE25B2A300544A5E
:101E340054496400002800F08480B8F1000F524D2A
:101E4400524FDFF85481B2BF042628260A461E44A6
:101E5400144445F001054FF00009C7F80090BFF3A2
:101E64006F8FBFF34F8F3046FFF7ECFD8020A847FC
:101E74003B68002BF1D04FF4F060A847D8F800304D
:101E84009B065CD54020A847238803F1804303F5D3
:101E94001C331B68002BDED007B0BDE8F08F91FA2D
:101EA400A1F1B1FA81F585E73449B9F1000F27D0E2
:101EB400D1F8C03413F4803F18BF00237168376829
:101EC400019304A8B847049A002A8AD0059A019B72
:101ED4009A4286D201214FF00208A94086F80E806A
:101EE400C9435046FFF78EFC06238DF80C30284B6F
:101EF4008DF80E401B688DF80F8003A898474CE7B7
:101F040004F00F0303F5947351F82330D6E714213A
:101F140001FB0433C3F80006C3F8042683E7B9F1D0
:101F2400000F04D0C3F8A007C3F8A4277BE714214B
:101F340001FB0433C3F80007C3F8042773E78020C8
:101F44009BE7B8F1000FB4BF042028201844FFF722
:101F540079FD12EA280838BF884638F8153003F1AD
:101F6400804303F51C331A68002AFCD094E700BFB1
:101F740032000020380000201C7C02400070024027
:101F840076260000882600007026000004710240B6
:101F94005C010020340000207474024038B5174BF3
:101FA400D3F86C44C3F86C44BFF36F8FBFF34F8F07
:101FB400FFF754FD38B1124A136823F0011103F0FE
:101FC40001130C43136001251CB9BDE83840FFF729
:101FD400D7BE94FAA4F1B1FA81F30F2BC8BFA3F1D1
:101FE40010001946D4BF43F08000C0B205FA03F3D1
:101FF40024EA0304FFF7BAFDE6E700BF00700240DD
:102004006401002037B50446FFF750FDFFF736FDA5
:10201400837B032B0DD12046FFF73EFD012303FAFA
:1020240000F0C1430F48FFF7EDFBFFF7A9FE03B033
:1020340030BD0568002DF8D12046FFF72DFD0123A2
:1020440003FA00F0C1430748FFF7DCFB06238DF8D1
:102054000430054B8DF806401B688DF8075001A825
:102064009847E2E7340000205C0100200720FFF7D6
:10207400C9BF0620FFF7C6BF0520FFF7C3BF042072
:10208400FFF7C0BF0320FFF7BDBF0220FFF7BABFB1
:102094000120FFF7B7BF08B5FFF7E0FC58B1EFF335
:1020A400108272B64C20FFF7CDFC4C20FFF7CAFC1F
:1020B40082F3108808BDBDE808404C20FFF7C2BC7D
:1020C40013B5FFF7F3FC0F4B9A7B032A06D10E4896
:1020D4006FF48031FFF796FB02B010BD1C6874B931
:1020E4006FF480310848FFF78DFB06238DF8043028
:1020F400064BADF806401B6801A89847ECE7FFF7CC
:10210400CAFFE9E73C000020340000205C01002005
:1021140070B50446FFF7A2FC02462046FFF7BCFC5C
:10212400012303FA00F5184EED43AAB10020FFF78E
:1021340065FB04F00F043068144B6400054004F29E
:10214400C57400203560043343F8044C18601B68E0
:10215400BDE87040FFF754BB1046FFF74FFB3068F3
:1021640014F0080205EA000535600AD104F00F04F2
:10217400074B04F5947443F82420BFF36F8FBFF327
:102184004F8F0020E4E700BF3800002000780240B1
:1021940000700240F7B504460020FFF72FFB2046ED
:1021A400FFF76CFC05462046FFF776FC012314F08C
:1021B400800F2A4E03FA00F317D1326833EA020182
:1021C40009D02046FFF7A4FF0323AB730020FFF7D9
:1021D40017FB03B0F0BD22EA030229603260204AF3
:1021E400106820EA03001060EEE7220711D4802C67
:1021F4001C481D4A29D004F00F0101F2DA314900CC
:10220400016011681068C9B241F002010143116014
:10221400126813493268086862EA00071F42D5D081
:1022240022EA03021843002332602B600323AB73BA
:102234008DF807300D4B086006221B688DF80420CA
:102244008DF8064001A89847C0E740F2B4710160D8
:1022540011681068C9B241F00401D7E734000020C6
:102264003800002000780240047802405C0100201D
:10227400F7B5184B184CD3F880542368174EDA433B
:10228400174B37781B6892B238461A43FFF704FCA1
:10229400012303FA00F0104202D03846FFF77AFF18
:1022A4006FF0011105F080050D483570FFF7AAFAAB
:1022B400236843F0010323600023ADF805308DF853
:1022C400073005238DF80430064B01A81B68984796
:1022D40003B0F0BD0070024038000020600100200F
:1022E400340000205C010020554B2DE9F041D3F867
:1022F4000453002229461646012400297CD1FFF705
:10230400ADFB002869D04F4B1B78002B65D196029A
:1023140063D54D494C4E40F2A9730B604B4B1C687E
:1023240014F0FF041CBF1868044040F2AA7008604F
:10233400186810F0FF001CBF1968084040F2AB7128
:102344003160196811F0FF01B4461CBF1E683140AA
:1023540040F2AC76CCF800601E6834403C4E08D0A5
:1023640037682743376040F2A977CCF800701C60C7
:102374001C68354F40F2AD743C601C68204008D0A6
:10238400346844EA0044346040F2AA743C60186043
:1023940018682D4840F2AE740460186801400DD0EE
:1023A400CC0748BF42F40002C806274840F2AB7489
:1023B400046019601B6848BF42F00102336833F0BF
:1023C40001111CBF05F08070024313F0011F04D0FB
:1023D4006B0544BF316042F480621E4F02F4000674
:1023E40022F400044FF00108E4B9FFF7C9FC2EB34E
:1023F400BDE8F041FFF73CBF91FAA1F31648B3FAE8
:1024040083F39F00384407683FB10660BFF36F8FC2
:10241400BFF34F8F04FA03F0024304FA03F321EAF3
:1024240003016AE794FAA4F5B5FA85F557F825305F
:1024340008FA05F5984724EA0504D5E7BDE8F081D4
:10244400007002403200002000780240047802400C
:10245400640100209C2600000071024000F18043CA
:102464001A68002A1BBF0022012000201A6070474E
:102474004FF0804310B5D3F80443620707D54FF4F7
:102484008470FFF7EBFF10B11E4B1B689847A3063F
:1024940008D54FF48A70FFF7E1FF18B11A4B0020FA
:1024A4001B689847600608D54FF48C70FFF7D6FF79
:1024B40018B1154B01201B689847210608D54FF425
:1024C4008E70FFF7CBFF18B1104B00201B689847A4
:1024D400E20508D54FF49070FFF7C0FF18B10B4B1D
:1024E40001201B689847A3050AD54FF49270FFF7A3
:1024F400B5FF28B1054BBDE810401B680220184702
:1025040010BD00BF680100206C0100207001002094
:1025140008B5FFF7ADFFBDE80840FFF767BA10B58F
:10252400C1B20020034621FA03F2C3F1070402F00A
:1025340001020133A240082B40EA0200F3D110BD8E
:10254400F8B5424C00260723C4F80C65C320C4F830
:102554000835C4F81065FFF7E2FF0546C220FFF70F
:10256400DEFF0304C12043EA0565FFF7D8FF0746F1
:10257400C020FFF7D4FF054345EA0725C4F82455D6
:10258400C720FFF7CCFF0546C620FFF7C8FF0304AA
:10259400C42043EA0565FFF7C2FF2843C4F82805B1
:1025A4000120FFF7BCFF054640F22310FFF7B7FFF9
:1025B4000304274843EA0565FFF7B1FF07462548AA
:1025C400FFF7ADFF054345EA0725C4F81C558920EC
:1025D400FFF7A5FF054648F6AB10FFF7A0FF03047D
:1025E4001D4843EA0565FFF79AFF07461B48FFF7B6
:1025F40096FF0543012345EA0725C4F82055C4F88E
:102604002C65C4F83035164BC4F81465C4F8183575
:102614000223C4F83435D4F8343503F00303022B11
:1026240007D14FF6FF73C4F83C350E4BC4F8383568
:10263400F8BDD4F8343503F00303012BF8D1FF239C
:10264400C4F83C3540F20713F0E700BF0010004027
:102654004523010067452301CDAB8900EFCDAB894C
:08266400010104012110010035
:10266C000608290C0338FDD8704708010C0110012D
:10267C00140118011C01200124012C01300134012A
:10268C0038013C014001440148014C01500100005B
:10269C00C51A0000F91A0000FD1A0000411C0000C8
:1026AC003B1C0000351C00002F1C0000291C0000E6
:1026BC00231C00001D1C0000C91B0000491C00004D
:1026CC00C5200000952000008F200000892000000C
:1026DC00832000007D200000772000007120000086
:1026EC009D1C00002D1B0000E51C00007522000045
:0426FC00A11F00001A
:042700000090D00372
:040000030000135D89
:00000001FF
